{
  "contractName": "Confirm",
  "abi": [
    {
      "constant": true,
      "inputs": [
        {
          "internalType": "string",
          "name": "mess",
          "type": "string"
        },
        {
          "internalType": "bytes",
          "name": "signature",
          "type": "bytes"
        }
      ],
      "name": "getSigner",
      "outputs": [
        {
          "internalType": "address",
          "name": "",
          "type": "address"
        }
      ],
      "payable": false,
      "stateMutability": "view",
      "type": "function"
    }
  ],
  "bytecode": "0x608060405234801561001057600080fd5b506103da806100206000396000f3fe608060405234801561001057600080fd5b506004361061002b5760003560e01c8063a8e547fb14610030575b600080fd5b6101806004803603604081101561004657600080fd5b810190808035906020019064010000000081111561006357600080fd5b82018360208201111561007557600080fd5b8035906020019184600183028401116401000000008311171561009757600080fd5b91908080601f016020809104026020016040519081016040528093929190818152602001838380828437600081840152601f19601f820116905080830192505050505050509192919290803590602001906401000000008111156100fa57600080fd5b82018360208201111561010c57600080fd5b8035906020019184600183028401116401000000008311171561012e57600080fd5b91908080601f016020809104026020016040519081016040528093929190818152602001838380828437600081840152601f19601f8201169050808301925050505050505091929192905050506101c2565b604051808273ffffffffffffffffffffffffffffffffffffffff1673ffffffffffffffffffffffffffffffffffffffff16815260200191505060405180910390f35b6000806102763385604051602001808373ffffffffffffffffffffffffffffffffffffffff1673ffffffffffffffffffffffffffffffffffffffff1660601b815260140182805190602001908083835b602083106102355780518252602082019150602081019050602083039250610212565b6001836020036101000a038019825116818451168082178552505050505050905001925050506040516020818303038152906040528051906020012061028b565b905061028281846102e3565b91505092915050565b60008160405160200180807f19457468657265756d205369676e6564204d6573736167653a0a333200000000815250601c01828152602001915050604051602081830303815290604052805190602001209050919050565b6000806000806102f28561036a565b92509250925060018684848460405160008152602001604052604051808581526020018460ff1660ff1681526020018381526020018281526020019450505050506020604051602081039080840390855afa158015610355573d6000803e3d6000fd5b50505060206040510351935050505092915050565b6000806000604184511461037d57600080fd5b6020840151915060408401519050606084015160001a9250828282925092509250919390925056fea265627a7a72315820df98b5e1795a2479984de5c026d61ae2b799be269fc17f54c2aefa14dc785b1264736f6c63430005100032",
  "source": "pragma solidity 0.5.16;\r\n\r\ncontract Confirm{\r\n\r\n    function getSigner(string memory mess, bytes memory signature) public view returns(address) {\r\n        bytes32 message = prefixed(keccak256(abi.encodePacked(msg.sender, mess)));\r\n        return recoverSigner(message, signature);\r\n    }\r\n\r\n    function splitSignature(bytes memory sig)\r\n        internal\r\n        pure\r\n        returns (uint8 v, bytes32 r, bytes32 s)\r\n    {\r\n        require(sig.length == 65);\r\n\r\n        assembly {\r\n            // first 32 bytes, after the length prefix.\r\n            r := mload(add(sig, 32))\r\n            // second 32 bytes.\r\n            s := mload(add(sig, 64))\r\n            // final byte (first byte of the next 32 bytes).\r\n            v := byte(0, mload(add(sig, 96)))\r\n        }\r\n\r\n        return (v, r, s);\r\n    }\r\n    \r\n    function recoverSigner(bytes32 message, bytes memory sig)\r\n        internal\r\n        pure\r\n        returns (address)\r\n    {\r\n        (uint8 v, bytes32 r, bytes32 s) = splitSignature(sig);\r\n\r\n        return ecrecover(message, v, r, s);\r\n    }\r\n    \r\n    function prefixed(bytes32 hash) internal pure returns (bytes32) {\r\n        return keccak256(abi.encodePacked(\"\\x19Ethereum Signed Message:\\n32\", hash));\r\n    }\r\n}\r\n",
  "sourcePath": "C:/Users/DIVYA JAYACHANDRAN/Desktop/solidity practice/sig/signature/src/contracts/Confirm.sol",
  "compiler": {
    "name": "solc",
    "version": "0.5.16+commit.9c3226ce.Emscripten.clang"
  },
  "schemaVersion": "3.3.4",
  "updatedAt": "2021-03-26T15:16:10.004Z",
  "networkType": "ethereum",
  "devdoc": {
    "methods": {}
  },
  "userdoc": {
    "methods": {}
  }
}